:100000000C9424010C9441010C9441010C94410185
:100010000C9441010C94F1010C9441010C944101A8
:100020000C9441010C9441010C9441010C94410148
:100030000C9441010C9441010C9441010C94410138
:100040000C9441010C9441010C9441010C94410128
:100050000C9441010C9441010C9441010C94410118
:100060000C9441010C944101000000000000005F6D
:1000700000000007000700147F147F14242A7F2A41
:10008000122313086462364955225000050300000C
:10009000001C2241000041221C0014083E081408E4
:1000A000083E0808005030000008080808080060F2
:1000B00060000020100804023E5149453E00427F86
:1000C000400042615149462141454B311814127F8D
:1000D0001027454545393C4A494930017109050316
:1000E0003649494936064949291E0036360000007E
:1000F0005636000008142241001414141414004150
:100100002214080201510906324979413E7E11113B
:10011000117E7F494949363E414141227F4141227A
:100120001C7F494949417F090909013E4149497AF2
:100130007F0808087F00417F41002040413F017F48
:10014000081422417F404040407F020C027F7F0420
:1001500008107F3E4141413E7F090909063E415159
:10016000215E7F09192946464949493101017F012C
:10017000013F4040403F1F2040201F3F4038403F4C
:100180006314081463070870080761514945430068
:100190007F41410002040810200041417F00040219
:1001A0000102044040404040000102040020545439
:1001B00054787F48444438384444442038444448C0
:1001C0007F3854545418087E0901020C5252523E92
:1001D0007F0804047800447D40002040443D007FB7
:1001E0001028440000417F40007C041804787C08FB
:1001F00004047838444444387C1414140808141453
:10020000187C7C080404084854545420043F44409B
:10021000203C4040207C1C2040201C3C4030403C86
:1002200044281028440C5050503C4464544C440022
:100230000836410000007F00000041360800100829
:10024000081008000000000011241FBECFEFD8E006
:10025000DEBFCDBF11E0A0E0B1E0ECEDFEE002C0FA
:1002600005900D92AE30B107D9F723E0AEE0B1E0D2
:1002700001C01D92A236B207E1F70E947B040C94E4
:100280006C070C940000FC019C01285F3F4F90E03C
:1002900080E0419151914617570711F481E090E0B9
:1002A000E217F307B1F70895FC01828193819183EE
:1002B00080838481958193838283868197819583CE
:1002C00084831782168280911601909117010197FD
:1002D00090931701809316010895FC01DB018D9125
:1002E0009C911197208131812D933C939183808340
:1002F0000895EF92FF920F931F93CF93DF93FA012C
:10030000EE0FFF1F9F012F5F3F4FDF011296261751
:1003100037070CF03FC0E901CC0FDD1FC80FD91F14
:1003200008811981EC01CE0FDF1F0990D881C02D03
:10033000C017D1077CF5A617B707ACF48D01000FE5
:10034000111F080F191FE901CC0FDD1F7E01E80EF8
:10035000F91EE80108811981E701E880F980E016BB
:10036000F1060CF49D0124173507B9F0D901AA0F45
:10037000BB1FA80FB91FE80FF91F4D915C91119792
:10038000C081D181CD93DC9351834083A901B7CF44
:100390009A01D4CFA617B707DCF3DF91CF911F9155
:1003A0000F91FF90EF900895EF92FF920F931F939C
:1003B000CF93DF937C018B01EB0177FD2196D595DF
:1003C000C7952197D7FF07C0DF91CF911F910F915C
:1003D000FF90EF900895AE01B801C7010E94790126
:1003E000F0CF1F920F920FB60F9211242F933F93CD
:1003F0004F935F936F937F938F939F93AF93BF932D
:10040000EF93FF9389B190910001892799B190935F
:10041000000120911201309113012230310521F4A5
:10042000109213011092120181FF58C061E070E038
:1004300088E191E00E944301892BF1F4209112019F
:10044000309113012130310571F580912001909197
:100450002101181619063CF18091140190911501A3
:10046000FC01EE0FFF1FE85EFE4F318320830196F3
:10047000909315018093140164E070E080E291E0B4
:100480000E94D401FF91EF91BF91AF919F918F9105
:100490007F916F915F914F913F912F910F900FBE80
:1004A0000F901F90189561E070E080E291E00E944B
:1004B0004301892B09F78091160190911701FC01E6
:1004C000EE0FFF1FE05EFE4F21E030E0318320831E
:1004D00001969093170180931601CECF82FF35C00D
:1004E00062E070E088E191E00E944301892B21F6EF
:1004F0008091120190911301019791F48091200154
:1005000090912101029764F480911401909115015A
:10051000FC01EE0FFF1FE85EFE4F22E030E0A5CFAA
:1005200062E070E080E291E00E944301892B09F0D3
:10053000A3CF8091160190911701FC01EE0FFF1FD0
:10054000E05EFE4F22E030E0C1CF83FF36C063E0C3
:1005500070E088E191E00E944301892B09F08CCF83
:100560008091120190911301019791F480912001E3
:1005700090912101039764F48091140190911501E9
:10058000FC01EE0FFF1FE85EFE4F23E030E06DCF71
:1005900063E070E080E291E00E944301892B09F062
:1005A0006BCF8091160190911701FC01EE0FFF1F98
:1005B000E05EFE4F23E030E089CF84FF5DCF64E052
:1005C00070E088E191E00E944301892B09F054CF4B
:1005D0008091120190911301019791F48091200173
:1005E00090912101049764F4809114019091150178
:1005F000FC01EE0FFF1FE85EFE4F24E030E035CF38
:1006000064E070E080E291E00E944301892B09F0F0
:1006100033CF8091160190911701FC01EE0FFF1F5F
:10062000E05EFE4F24E030E051CF29986623A9F028
:100630002B9A27E030E090E0AC01022E02C05595E5
:1006400047950A94E2F740FF0AC02C9A2D9A2D98FC
:100650002150310988F7299A08952B98EACF2C98D0
:10066000F5CF60E00C941503CF93DF93219A229A83
:10067000239A249A259A2A9A299A8FE39CE901972A
:10068000F1F700C000002A989FEF2AE683E091501E
:1006900020408040E1F700C000002A9A299881E2BA
:1006A0000E94310383E10E94310386E00E943103FE
:1006B00082EC0E94310380E20E94310389E00E94B3
:1006C000310380E80E94310380E40E943103C8EFC7
:1006D000D1E061E080E00E9415032197D1F788E026
:1006E0000E9431038CE0DF91CF910C94310380E8BC
:1006F0000E94310380E40E94310310926003109243
:100700006103E8E6F1E088EF91E0DF019C011D92D2
:1007100021503040E1F70895811103C084E20C9428
:10072000310380E2FCCF962F969596959695E82F0B
:10073000F0E084E5989FE00DF11D1124E859FE4F8B
:100740002081677081E090E001C0880F6A95EAF728
:10075000442319F0282B2083089580952823FBCF6C
:100760008F929F92AF92BF92DF92EF92FF920F9380
:100770001F93CF93DF9300D000D00F92CDB7DEB799
:10078000E82FF62E80320CF44DC0E05285E0E802EE
:10079000B001112468597F4F45E050E0CE01019629
:1007A0000E9463078E010F5F1F4F95E0F99E500175
:1007B000112487E0F89E40011124E12CEA141B0467
:1007C0000CF463C0809160038F5F9F2D990F990F88
:1007D0009F0D890F80936003843558F080916103E9
:1007E000109260038F5F97E0F99E800D1124809333
:1007F000610380916103803320F0109260031092B6
:1008000061030F900F900F900F900F90DF91CF9199
:100810001F910F91FF90EF90DF90BF90AF909F904E
:100820008F900895EE0FFF0BE85DFE4F0081118160
:100830000115110509F0B9CF45E050E068E670E018
:10084000ADCFED0D5E0D8E2D6F2D0E945707D80197
:10085000A80FB11D2C9130E08D2D0E94570702C0CA
:10086000359527958A95E2F741E020FF40E06E2F0D
:10087000852F0E949303D394E0916103509160030C
:10088000D8141904F4F2E39499CFD12CF5CFE82FC2
:10089000803234F4EE0FFF0BE85DFE4F718360830E
:1008A00008951F93CF93DF93162FEC018991811147
:1008B00004C0DF91CF911F910895612F0E94B00372
:1008C000F5CF80936003609361030895CF93DF9326
:1008D00080E80E94310380E40E943103C8E6D1E041
:1008E00061E089910E94150383E0C036D807C1F703
:1008F000DF91CF9108950E9434030E9477036FE047
:1009000084E20E94610462E081E091E00E9451046F
:100910000E94660482E090E090931301809312019C
:10092000109211011092100187B18E6187B984B1C4
:100930008F6184B98AB11AB880916800846080930D
:10094000680080916D008E6180936D008BB18E6127
:100950008BB97894C8E001E010E0D4E030E1B32E28
:1009600048E1E42E41E0F42E8091120190911301B0
:10097000892B09F02CC22FEF89E698E121508040A5
:100980009040E1F700C00000EFEFF9E628E1E15008
:10099000F0402040E1F700C000008FEF99E6E8E169
:1009A00081509040E040E1F700C00000FFEF29E6F1
:1009B00088E1F15020408040E1F700C00000C09085
:1009C0002001D090210191E0C916D10409F099C10C
:1009D0000E9434030E9477036FE084E20E94610466
:1009E00062E081E091E00E9451040E94660480E28E
:1009F00091E00E94540164E070E080E291E00E9486
:100A0000D40182E088B9EFEFFBE722E9E150F04042
:100A10002040E1F700C0000018B8D0921301C09246
:100A20001201C0902001D090210122E0C216D10411
:100A300009F089C10E9434030E9477036FE084E2C9
:100A40000E94610462E084E091E00E9451040E94EF
:100A5000660480E291E00E94540164E070E080E26C
:100A600091E00E94D401D8B98FEF9BE7E2E9815071
:100A70009040E040E1F700C000000E94770318B802
:100A80001093130100931201D0921101C092100132
:100A9000C0902001D0902101E3E0CE16D10409F0EE
:100AA00074C10E9434030E9477036FE084E20E94C5
:100AB000610462E087E091E00E9451040E946604B4
:100AC00080E291E00E94540164E070E080E291E0F5
:100AD0000E94D401C8B9FFEF2BE782E9F150204012
:100AE0008040E1F700C000000E9477030E94660486
:100AF00018B81093130100931201D0921101C09203
:100B00001001C0902001D090210184E0C816D104CA
:100B100009F05DC10E9434030E9477036FE084E214
:100B20000E94610462E08AE091E00E9451040E9408
:100B3000660480E291E00E94540164E070E080E28B
:100B400091E00E94D401B8B89FEFEBE7F2E9915031
:100B5000E040F040E1F700C000000E9477030E94EF
:100B6000660418B81093130100931201D09211017A
:100B7000C09210018091200190912101039709F00A
:100B80002EC10E9434030E9477036FE084E20E942A
:100B9000610462E087E091E00E9451040E946604D3
:100BA00080E291E00E94540164E070E080E291E014
:100BB0000E94D401C8B92FEF87EA91E62150804006
:100BC0009040E1F700C000000E9477030E94660495
:100BD00018B88091200190912101029709F023C15A
:100BE0000E9434030E9477036FE084E20E94610454
:100BF00062E084E091E00E9451040E94660480E279
:100C000091E00E94540164E070E080E291E00E9473
:100C1000D401D8B98FEF97EAE1E681509040E040E7
:100C2000E1F700C000000E9477030E94660418B834
:100C30008091200190912101019709F018C10E9433
:100C400034030E9477036FE084E20E94610462E053
:100C500081E091E00E9451040E94660480E291E0EC
:100C60000E94540164E070E080E291E00E94D401AF
:100C700082E088B99FEFE7EAF1E69150E040F0406A
:100C8000E1F700C0000018B888E0E8E1F1E0A0E278
:100C9000B1E001900D928A95E1F7F7012C2F1192A6
:100CA0002A95E9F7109215011092140164E070E0A2
:100CB00080E291E00E94D40181E090E02091200147
:100CC00030912101232B11F090E080E0880F991FD3
:100CD0009093130180931201E0E2F1E090E080E054
:100CE00021913191232B21F0019684309105C1F798
:100CF0009093170180931601109211011092100128
:100D000033CE82E0C816D1040CF48BCE0E9434039B
:100D10000E9477036FE084E20E94610462E081E058
:100D200091E00E9451040E9466049FEFEDE3F9E414
:100D30009150E040F040E1F700C000000E947703CE
:100D40000E9466046ECEF3E0CF16D1040CF4A0CE60
:100D50000E9434030E9477036FE084E20E946104E2
:100D600062E084E091E00E9451040E9466042FEF4B
:100D70008DE399E4215080409040E1F700C00000ED
:100D80000E9477030E94660483CE94E0C916D104C2
:100D90000CF4B7CE0E9434030E9477036FE084E224
:100DA0000E94610462E087E091E00E9451040E9489
:100DB0006604EFEFFDE329E4E150F0402040E1F765
:100DC00000C000000E9477030E9466049ACE8091C2
:100DD000120190911301019709F0C6CDCBCE8091FD
:100DE00010019091110104970CF4F3CE0E9434038A
:100DF0000E9477036FE084E20E94610462E087E072
:100E000091E00E9451040E946604EFEFFDE329E4A3
:100E1000E150F0402040E1F700C000000E9477035D
:100E20000E946604D6CE8091100190911101039723
:100E30000CF4FECE0E9434030E9477036FE084E23C
:100E40000E94610462E084E091E00E9451040E94EB
:100E50006604FFEF2DE389E4F15020408040E1F784
:100E600000C000000E9477030E946604E1CE8091DA
:100E700010019091110102970CF406CF0E943403E7
:100E80000E9477036FE084E20E94610462E081E0E7
:100E900091E00E9451040E9466042FEF8DE399E4D3
:100EA000215080409040E1F700C00000EDCE991B3A
:100EB00079E004C0991F961708F0961B881F7A9551
:100EC000C9F780950895FB01DC0102C005900D92E1
:0C0ED00041505040D8F70895F894FFCF2F
:0E0EDC00FF310100320100330100340100003B
:00000001FF
